{
  "contractName": "RiceCertificate",
  "abi": [
    {
      "constant": true,
      "inputs": [
        {
          "internalType": "uint256",
          "name": "",
          "type": "uint256"
        }
      ],
      "name": "Certified",
      "outputs": [
        {
          "internalType": "uint256",
          "name": "farm_id",
          "type": "uint256"
        },
        {
          "internalType": "string",
          "name": "cname",
          "type": "string"
        },
        {
          "internalType": "uint256",
          "name": "fromyr",
          "type": "uint256"
        },
        {
          "internalType": "uint256",
          "name": "toyr",
          "type": "uint256"
        }
      ],
      "payable": false,
      "stateMutability": "view",
      "type": "function"
    },
    {
      "constant": true,
      "inputs": [
        {
          "internalType": "uint256",
          "name": "",
          "type": "uint256"
        }
      ],
      "name": "Inspect",
      "outputs": [
        {
          "internalType": "uint256",
          "name": "id",
          "type": "uint256"
        },
        {
          "internalType": "uint256",
          "name": "idate",
          "type": "uint256"
        },
        {
          "internalType": "string",
          "name": "iname",
          "type": "string"
        }
      ],
      "payable": false,
      "stateMutability": "view",
      "type": "function"
    },
    {
      "constant": true,
      "inputs": [
        {
          "internalType": "uint256",
          "name": "",
          "type": "uint256"
        }
      ],
      "name": "RiceInfo",
      "outputs": [
        {
          "internalType": "uint256",
          "name": "farm_id",
          "type": "uint256"
        },
        {
          "internalType": "string",
          "name": "crop",
          "type": "string"
        },
        {
          "internalType": "bytes32",
          "name": "extent",
          "type": "bytes32"
        },
        {
          "internalType": "bytes32",
          "name": "previouscrop",
          "type": "bytes32"
        },
        {
          "internalType": "bytes32",
          "name": "protect",
          "type": "bytes32"
        },
        {
          "internalType": "bytes32",
          "name": "manure",
          "type": "bytes32"
        },
        {
          "internalType": "bytes32",
          "name": "seed",
          "type": "bytes32"
        },
        {
          "internalType": "bytes32",
          "name": "soiltype",
          "type": "bytes32"
        }
      ],
      "payable": false,
      "stateMutability": "view",
      "type": "function"
    },
    {
      "constant": true,
      "inputs": [
        {
          "internalType": "uint256",
          "name": "",
          "type": "uint256"
        }
      ],
      "name": "RiceMap",
      "outputs": [
        {
          "internalType": "uint256",
          "name": "farm_id",
          "type": "uint256"
        },
        {
          "internalType": "string",
          "name": "farm_owner",
          "type": "string"
        },
        {
          "internalType": "bytes32",
          "name": "farmeraddress",
          "type": "bytes32"
        },
        {
          "internalType": "bytes32",
          "name": "place",
          "type": "bytes32"
        },
        {
          "internalType": "bytes32",
          "name": "requirement",
          "type": "bytes32"
        },
        {
          "internalType": "bytes32",
          "name": "standard",
          "type": "bytes32"
        },
        {
          "internalType": "address",
          "name": "acc",
          "type": "address"
        },
        {
          "internalType": "bytes32",
          "name": "status",
          "type": "bytes32"
        }
      ],
      "payable": false,
      "stateMutability": "view",
      "type": "function"
    },
    {
      "constant": true,
      "inputs": [],
      "name": "countApplication",
      "outputs": [
        {
          "internalType": "uint256",
          "name": "",
          "type": "uint256"
        }
      ],
      "payable": false,
      "stateMutability": "view",
      "type": "function"
    },
    {
      "constant": true,
      "inputs": [
        {
          "internalType": "uint256",
          "name": "",
          "type": "uint256"
        }
      ],
      "name": "myStructs",
      "outputs": [
        {
          "internalType": "uint256",
          "name": "farm_id",
          "type": "uint256"
        },
        {
          "internalType": "string",
          "name": "farm_owner",
          "type": "string"
        },
        {
          "internalType": "bytes32",
          "name": "farmeraddress",
          "type": "bytes32"
        },
        {
          "internalType": "bytes32",
          "name": "place",
          "type": "bytes32"
        },
        {
          "internalType": "bytes32",
          "name": "requirement",
          "type": "bytes32"
        },
        {
          "internalType": "bytes32",
          "name": "standard",
          "type": "bytes32"
        },
        {
          "internalType": "address",
          "name": "acc",
          "type": "address"
        },
        {
          "internalType": "bytes32",
          "name": "status",
          "type": "bytes32"
        }
      ],
      "payable": false,
      "stateMutability": "view",
      "type": "function"
    },
    {
      "constant": true,
      "inputs": [
        {
          "internalType": "address",
          "name": "",
          "type": "address"
        }
      ],
      "name": "register",
      "outputs": [
        {
          "internalType": "string",
          "name": "role",
          "type": "string"
        },
        {
          "internalType": "address",
          "name": "pass",
          "type": "address"
        }
      ],
      "payable": false,
      "stateMutability": "view",
      "type": "function"
    },
    {
      "constant": false,
      "inputs": [
        {
          "internalType": "string",
          "name": "urole",
          "type": "string"
        },
        {
          "internalType": "address",
          "name": "account",
          "type": "address"
        }
      ],
      "name": "savesignup",
      "outputs": [
        {
          "internalType": "bool",
          "name": "",
          "type": "bool"
        }
      ],
      "payable": true,
      "stateMutability": "payable",
      "type": "function"
    },
    {
      "constant": true,
      "inputs": [
        {
          "internalType": "address",
          "name": "account",
          "type": "address"
        }
      ],
      "name": "logindata",
      "outputs": [
        {
          "internalType": "string",
          "name": "",
          "type": "string"
        }
      ],
      "payable": false,
      "stateMutability": "view",
      "type": "function"
    },
    {
      "constant": false,
      "inputs": [
        {
          "internalType": "address",
          "name": "acc",
          "type": "address"
        },
        {
          "internalType": "uint256[]",
          "name": "tArray",
          "type": "uint256[]"
        }
      ],
      "name": "saveTokenData",
      "outputs": [
        {
          "internalType": "bool",
          "name": "",
          "type": "bool"
        }
      ],
      "payable": false,
      "stateMutability": "nonpayable",
      "type": "function"
    },
    {
      "constant": true,
      "inputs": [
        {
          "internalType": "address",
          "name": "acc",
          "type": "address"
        }
      ],
      "name": "popToken",
      "outputs": [
        {
          "internalType": "uint256",
          "name": "",
          "type": "uint256"
        }
      ],
      "payable": false,
      "stateMutability": "view",
      "type": "function"
    },
    {
      "constant": false,
      "inputs": [
        {
          "internalType": "uint256",
          "name": "_farmid",
          "type": "uint256"
        },
        {
          "internalType": "string",
          "name": "_farmowner",
          "type": "string"
        },
        {
          "internalType": "bytes32",
          "name": "_farmeraddress",
          "type": "bytes32"
        },
        {
          "internalType": "bytes32",
          "name": "_place",
          "type": "bytes32"
        },
        {
          "internalType": "bytes32",
          "name": "_requirement",
          "type": "bytes32"
        },
        {
          "internalType": "bytes32",
          "name": "_standard",
          "type": "bytes32"
        },
        {
          "internalType": "address",
          "name": "_account",
          "type": "address"
        },
        {
          "internalType": "bytes32",
          "name": "_status",
          "type": "bytes32"
        }
      ],
      "name": "addApplication",
      "outputs": [
        {
          "internalType": "bool",
          "name": "",
          "type": "bool"
        }
      ],
      "payable": true,
      "stateMutability": "payable",
      "type": "function"
    },
    {
      "constant": false,
      "inputs": [
        {
          "internalType": "uint256",
          "name": "_farmid",
          "type": "uint256"
        },
        {
          "internalType": "string",
          "name": "_crop",
          "type": "string"
        },
        {
          "internalType": "bytes32",
          "name": "_extent",
          "type": "bytes32"
        },
        {
          "internalType": "bytes32",
          "name": "_previouscrop",
          "type": "bytes32"
        },
        {
          "internalType": "bytes32",
          "name": "_protect",
          "type": "bytes32"
        },
        {
          "internalType": "bytes32",
          "name": "_manure",
          "type": "bytes32"
        },
        {
          "internalType": "bytes32",
          "name": "_seed",
          "type": "bytes32"
        },
        {
          "internalType": "bytes32",
          "name": "_soiltype",
          "type": "bytes32"
        },
        {
          "internalType": "address",
          "name": "acco",
          "type": "address"
        }
      ],
      "name": "addApplication2",
      "outputs": [
        {
          "internalType": "bool",
          "name": "",
          "type": "bool"
        }
      ],
      "payable": true,
      "stateMutability": "payable",
      "type": "function"
    },
    {
      "constant": true,
      "inputs": [
        {
          "internalType": "address",
          "name": "acc",
          "type": "address"
        }
      ],
      "name": "getFarm",
      "outputs": [
        {
          "internalType": "uint256[]",
          "name": "",
          "type": "uint256[]"
        }
      ],
      "payable": false,
      "stateMutability": "view",
      "type": "function"
    },
    {
      "constant": true,
      "inputs": [
        {
          "internalType": "uint256",
          "name": "id",
          "type": "uint256"
        }
      ],
      "name": "getApplication",
      "outputs": [
        {
          "internalType": "uint256",
          "name": "",
          "type": "uint256"
        },
        {
          "internalType": "string",
          "name": "",
          "type": "string"
        },
        {
          "internalType": "bytes32",
          "name": "",
          "type": "bytes32"
        }
      ],
      "payable": false,
      "stateMutability": "view",
      "type": "function"
    },
    {
      "constant": true,
      "inputs": [],
      "name": "getApplicationCount",
      "outputs": [
        {
          "internalType": "uint256",
          "name": "",
          "type": "uint256"
        }
      ],
      "payable": false,
      "stateMutability": "view",
      "type": "function"
    },
    {
      "constant": false,
      "inputs": [
        {
          "internalType": "uint256",
          "name": "_id",
          "type": "uint256"
        },
        {
          "internalType": "uint256",
          "name": "idate",
          "type": "uint256"
        },
        {
          "internalType": "string",
          "name": "iname",
          "type": "string"
        }
      ],
      "name": "addInspectDetails",
      "outputs": [
        {
          "internalType": "bool",
          "name": "",
          "type": "bool"
        }
      ],
      "payable": true,
      "stateMutability": "payable",
      "type": "function"
    },
    {
      "constant": true,
      "inputs": [
        {
          "internalType": "uint256",
          "name": "farm_id",
          "type": "uint256"
        }
      ],
      "name": "getInfo",
      "outputs": [
        {
          "internalType": "string",
          "name": "",
          "type": "string"
        },
        {
          "internalType": "bytes32",
          "name": "",
          "type": "bytes32"
        },
        {
          "internalType": "bytes32",
          "name": "",
          "type": "bytes32"
        },
        {
          "internalType": "bytes32",
          "name": "",
          "type": "bytes32"
        },
        {
          "internalType": "bytes32",
          "name": "",
          "type": "bytes32"
        },
        {
          "internalType": "bytes32",
          "name": "",
          "type": "bytes32"
        },
        {
          "internalType": "uint256",
          "name": "",
          "type": "uint256"
        }
      ],
      "payable": false,
      "stateMutability": "view",
      "type": "function"
    },
    {
      "constant": true,
      "inputs": [
        {
          "internalType": "uint256",
          "name": "farm_id",
          "type": "uint256"
        }
      ],
      "name": "getextraInfo",
      "outputs": [
        {
          "internalType": "string",
          "name": "",
          "type": "string"
        },
        {
          "internalType": "bytes32",
          "name": "",
          "type": "bytes32"
        },
        {
          "internalType": "bytes32",
          "name": "",
          "type": "bytes32"
        },
        {
          "internalType": "bytes32",
          "name": "",
          "type": "bytes32"
        },
        {
          "internalType": "bytes32",
          "name": "",
          "type": "bytes32"
        },
        {
          "internalType": "bytes32",
          "name": "",
          "type": "bytes32"
        },
        {
          "internalType": "bytes32",
          "name": "",
          "type": "bytes32"
        }
      ],
      "payable": false,
      "stateMutability": "view",
      "type": "function"
    },
    {
      "constant": true,
      "inputs": [
        {
          "internalType": "uint256",
          "name": "farm_id",
          "type": "uint256"
        }
      ],
      "name": "getInspectedInfo",
      "outputs": [
        {
          "internalType": "uint256",
          "name": "",
          "type": "uint256"
        },
        {
          "internalType": "string",
          "name": "",
          "type": "string"
        }
      ],
      "payable": false,
      "stateMutability": "view",
      "type": "function"
    },
    {
      "constant": false,
      "inputs": [
        {
          "internalType": "uint256",
          "name": "farm_id",
          "type": "uint256"
        },
        {
          "internalType": "string",
          "name": "_farmowner",
          "type": "string"
        },
        {
          "internalType": "bytes32",
          "name": "_farmeraddress",
          "type": "bytes32"
        },
        {
          "internalType": "bytes32",
          "name": "_place",
          "type": "bytes32"
        },
        {
          "internalType": "bytes32",
          "name": "_requirement",
          "type": "bytes32"
        },
        {
          "internalType": "bytes32",
          "name": "_standard",
          "type": "bytes32"
        },
        {
          "internalType": "bytes32",
          "name": "status",
          "type": "bytes32"
        }
      ],
      "name": "updateFarm",
      "outputs": [
        {
          "internalType": "bool",
          "name": "",
          "type": "bool"
        }
      ],
      "payable": true,
      "stateMutability": "payable",
      "type": "function"
    },
    {
      "constant": false,
      "inputs": [
        {
          "internalType": "uint256",
          "name": "farm_id",
          "type": "uint256"
        },
        {
          "internalType": "string",
          "name": "_cname",
          "type": "string"
        },
        {
          "internalType": "uint256",
          "name": "_fromyr",
          "type": "uint256"
        },
        {
          "internalType": "uint256",
          "name": "_toyr",
          "type": "uint256"
        }
      ],
      "name": "addCertifierDetails",
      "outputs": [
        {
          "internalType": "bool",
          "name": "",
          "type": "bool"
        }
      ],
      "payable": true,
      "stateMutability": "payable",
      "type": "function"
    },
    {
      "constant": true,
      "inputs": [
        {
          "internalType": "uint256",
          "name": "farm_id",
          "type": "uint256"
        }
      ],
      "name": "getCertificationInfo",
      "outputs": [
        {
          "internalType": "string",
          "name": "",
          "type": "string"
        },
        {
          "internalType": "uint256",
          "name": "",
          "type": "uint256"
        },
        {
          "internalType": "uint256",
          "name": "",
          "type": "uint256"
        }
      ],
      "payable": false,
      "stateMutability": "view",
      "type": "function"
    },
    {
      "constant": true,
      "inputs": [],
      "name": "retApp",
      "outputs": [
        {
          "internalType": "bytes32[]",
          "name": "",
          "type": "bytes32[]"
        }
      ],
      "payable": false,
      "stateMutability": "view",
      "type": "function"
    },
    {
      "constant": false,
      "inputs": [
        {
          "internalType": "uint256",
          "name": "farm_id",
          "type": "uint256"
        },
        {
          "internalType": "bytes",
          "name": "hashArray",
          "type": "bytes"
        }
      ],
      "name": "setShapeArray",
      "outputs": [
        {
          "internalType": "bool",
          "name": "",
          "type": "bool"
        }
      ],
      "payable": true,
      "stateMutability": "payable",
      "type": "function"
    },
    {
      "constant": true,
      "inputs": [
        {
          "internalType": "uint256",
          "name": "farm_id",
          "type": "uint256"
        }
      ],
      "name": "getShapeArray",
      "outputs": [
        {
          "internalType": "bytes",
          "name": "",
          "type": "bytes"
        }
      ],
      "payable": false,
      "stateMutability": "view",
      "type": "function"
    }
  ],
  "bytecode": "0x608060405234801561001057600080fd5b50612e80806100206000396000f3fe6080604052600436106101815760003560e01c80634e8c4894116100d15780638c3692c31161008a578063caf64c2611610064578063caf64c26146112cf578063df90c8d3146113cc578063e345c162146114dd578063e639201d1461154957610181565b80638c3692c3146110945780639e9d3a97146110f9578063af641c22146111de57610181565b80634e8c489414610c02578063569988ae14610ccb57806358a6f4ca14610d8d5780635c79a1ed14610db857806361cb367714610e7357806377fde06514610f5a57610181565b80632e7da93f1161013e57806334c2f7571161011857806334c2f757146108725780633bfc187c146109815780634420e48614610a275780634b5adec814610b2457610181565b80632e7da93f146106775780632fc75b0414610754578063340027d51461084757610181565b80630866975c146101865780631a3cd59a146102975780631f2f4bfd146103755780632893fb0b14610437578063295343b6146104eb5780632b64ddee146105ad575b600080fd5b34801561019257600080fd5b506101bf600480360360208110156101a957600080fd5b8101908080359060200190929190505050611679565b60405180898152602001806020018881526020018781526020018681526020018581526020018473ffffffffffffffffffffffffffffffffffffffff1673ffffffffffffffffffffffffffffffffffffffff168152602001838152602001828103825289818151815260200191508051906020019080838360005b8381101561025557808201518184015260208101905061023a565b50505050905090810190601f1680156102825780820380516001836020036101000a031916815260200191505b50995050505050505050505060405180910390f35b3480156102a357600080fd5b506102d0600480360360208110156102ba57600080fd5b8101908080359060200190929190505050611779565b6040518080602001888152602001878152602001868152602001858152602001848152602001838152602001828103825289818151815260200191508051906020019080838360005b83811015610334578082015181840152602081019050610319565b50505050905090810190601f1680156103615780820380516001836020036101000a031916815260200191505b509850505050505050505060405180910390f35b34801561038157600080fd5b506103ae6004803603602081101561039857600080fd5b81019080803590602001909291905050506118c3565b6040518084815260200180602001838152602001828103825284818151815260200191508051906020019080838360005b838110156103fa5780820151818401526020810190506103df565b50505050905090810190601f1680156104275780820380516001836020036101000a031916815260200191505b5094505050505060405180910390f35b34801561044357600080fd5b506104706004803603602081101561045a57600080fd5b81019080803590602001909291905050506119b6565b6040518080602001828103825283818151815260200191508051906020019080838360005b838110156104b0578082015181840152602081019050610495565b50505050905090810190601f1680156104dd5780820380516001836020036101000a031916815260200191505b509250505060405180910390f35b3480156104f757600080fd5b506105246004803603602081101561050e57600080fd5b8101908080359060200190929190505050611a6e565b6040518084815260200183815260200180602001828103825283818151815260200191508051906020019080838360005b83811015610570578082015181840152602081019050610555565b50505050905090810190601f16801561059d5780820380516001836020036101000a031916815260200191505b5094505050505060405180910390f35b3480156105b957600080fd5b506105fc600480360360208110156105d057600080fd5b81019080803573ffffffffffffffffffffffffffffffffffffffff169060200190929190505050611b30565b6040518080602001828103825283818151815260200191508051906020019080838360005b8381101561063c578082015181840152602081019050610621565b50505050905090810190601f1680156106695780820380516001836020036101000a031916815260200191505b509250505060405180910390f35b61073a6004803603604081101561068d57600080fd5b8101908080359060200190929190803590602001906401000000008111156106b457600080fd5b8201836020820111156106c657600080fd5b803590602001918460018302840111640100000000831117156106e857600080fd5b91908080601f016020809104026020016040519081016040528093929190818152602001838380828437600081840152601f19601f820116905080830192505050505050509192919290505050611c13565b604051808215151515815260200191505060405180910390f35b61082d6004803603604081101561076a57600080fd5b810190808035906020019064010000000081111561078757600080fd5b82018360208201111561079957600080fd5b803590602001918460018302840111640100000000831117156107bb57600080fd5b91908080601f016020809104026020016040519081016040528093929190818152602001838380828437600081840152601f19601f820116905080830192505050505050509192919290803573ffffffffffffffffffffffffffffffffffffffff169060200190929190505050611c46565b604051808215151515815260200191505060405180910390f35b34801561085357600080fd5b5061085c611ca8565b6040518082815260200191505060405180910390f35b610967600480360360e081101561088857600080fd5b8101908080359060200190929190803590602001906401000000008111156108af57600080fd5b8201836020820111156108c157600080fd5b803590602001918460018302840111640100000000831117156108e357600080fd5b91908080601f016020809104026020016040519081016040528093929190818152602001838380828437600081840152601f19601f8201169050808301925050505050505091929192908035906020019092919080359060200190929190803590602001909291908035906020019092919080359060200190929190505050611cae565b604051808215151515815260200191505060405180910390f35b34801561098d57600080fd5b506109d0600480360360208110156109a457600080fd5b81019080803573ffffffffffffffffffffffffffffffffffffffff169060200190929190505050611d6d565b6040518080602001828103825283818151815260200191508051906020019060200280838360005b83811015610a135780820151818401526020810190506109f8565b505050509050019250505060405180910390f35b348015610a3357600080fd5b50610a7660048036036020811015610a4a57600080fd5b81019080803573ffffffffffffffffffffffffffffffffffffffff169060200190929190505050611e07565b60405180806020018373ffffffffffffffffffffffffffffffffffffffff1673ffffffffffffffffffffffffffffffffffffffff168152602001828103825284818151815260200191508051906020019080838360005b83811015610ae8578082015181840152602081019050610acd565b50505050905090810190601f168015610b155780820380516001836020036101000a031916815260200191505b50935050505060405180910390f35b348015610b3057600080fd5b50610b5d60048036036020811015610b4757600080fd5b8101908080359060200190929190505050611ee3565b6040518080602001888152602001878152602001868152602001858152602001848152602001838152602001828103825289818151815260200191508051906020019080838360005b83811015610bc1578082015181840152602081019050610ba6565b50505050905090810190601f168015610bee5780820380516001836020036101000a031916815260200191505b509850505050505050505060405180910390f35b348015610c0e57600080fd5b50610c3b60048036036020811015610c2557600080fd5b8101908080359060200190929190505050612043565b6040518085815260200180602001848152602001838152602001828103825285818151815260200191508051906020019080838360005b83811015610c8d578082015181840152602081019050610c72565b50505050905090810190601f168015610cba5780820380516001836020036101000a031916815260200191505b509550505050505060405180910390f35b348015610cd757600080fd5b50610d0460048036036020811015610cee57600080fd5b810190808035906020019092919050505061210b565b6040518080602001848152602001838152602001828103825285818151815260200191508051906020019080838360005b83811015610d50578082015181840152602081019050610d35565b50505050905090810190601f168015610d7d5780820380516001836020036101000a031916815260200191505b5094505050505060405180910390f35b348015610d9957600080fd5b50610da26121fd565b6040518082815260200191505060405180910390f35b348015610dc457600080fd5b50610df160048036036020811015610ddb57600080fd5b810190808035906020019092919050505061220a565b6040518083815260200180602001828103825283818151815260200191508051906020019080838360005b83811015610e37578082015181840152602081019050610e1c565b50505050905090810190601f168015610e645780820380516001836020036101000a031916815260200191505b50935050505060405180910390f35b610f4060048036036060811015610e8957600080fd5b81019080803590602001909291908035906020019092919080359060200190640100000000811115610eba57600080fd5b820183602082011115610ecc57600080fd5b80359060200191846001830284011164010000000083111715610eee57600080fd5b91908080601f016020809104026020016040519081016040528093929190818152602001838380828437600081840152601f19601f8201169050808301925050505050505091929192905050506122e0565b604051808215151515815260200191505060405180910390f35b61107a6004803603610120811015610f7157600080fd5b810190808035906020019092919080359060200190640100000000811115610f9857600080fd5b820183602082011115610faa57600080fd5b80359060200191846001830284011164010000000083111715610fcc57600080fd5b91908080601f016020809104026020016040519081016040528093929190818152602001838380828437600081840152601f19601f820116905080830192505050505050509192919290803590602001909291908035906020019092919080359060200190929190803590602001909291908035906020019092919080359060200190929190803573ffffffffffffffffffffffffffffffffffffffff16906020019092919050505061234b565b604051808215151515815260200191505060405180910390f35b3480156110a057600080fd5b506110e3600480360360208110156110b757600080fd5b81019080803573ffffffffffffffffffffffffffffffffffffffff169060200190929190505050612587565b6040518082815260200191505060405180910390f35b34801561110557600080fd5b506111326004803603602081101561111c57600080fd5b81019080803590602001909291905050506125e9565b6040518089815260200180602001888152602001878152602001868152602001858152602001848152602001838152602001828103825289818151815260200191508051906020019080838360005b8381101561119c578082015181840152602081019050611181565b50505050905090810190601f1680156111c95780820380516001836020036101000a031916815260200191505b50995050505050505050505060405180910390f35b6112b5600480360360808110156111f457600080fd5b81019080803590602001909291908035906020019064010000000081111561121b57600080fd5b82018360208201111561122d57600080fd5b8035906020019184600183028401116401000000008311171561124f57600080fd5b91908080601f016020809104026020016040519081016040528093929190818152602001838380828437600081840152601f19601f82011690508083019250505050505050919291929080359060200190929190803590602001909291905050506126c9565b604051808215151515815260200191505060405180910390f35b3480156112db57600080fd5b506113b2600480360360408110156112f257600080fd5b81019080803573ffffffffffffffffffffffffffffffffffffffff1690602001909291908035906020019064010000000081111561132f57600080fd5b82018360208201111561134157600080fd5b8035906020019184602083028401116401000000008311171561136357600080fd5b919080806020026020016040519081016040528093929190818152602001838360200280828437600081840152601f19601f820116905080830192505050505050509192919290505050612734565b604051808215151515815260200191505060405180910390f35b3480156113d857600080fd5b50611405600480360360208110156113ef57600080fd5b81019080803590602001909291905050506127dc565b60405180898152602001806020018881526020018781526020018681526020018581526020018473ffffffffffffffffffffffffffffffffffffffff1673ffffffffffffffffffffffffffffffffffffffff168152602001838152602001828103825289818151815260200191508051906020019080838360005b8381101561149b578082015181840152602081019050611480565b50505050905090810190601f1680156114c85780820380516001836020036101000a031916815260200191505b50995050505050505050505060405180910390f35b3480156114e957600080fd5b506114f26128e9565b6040518080602001828103825283818151815260200191508051906020019060200280838360005b8381101561153557808201518184015260208101905061151a565b505050509050019250505060405180910390f35b61165f600480360361010081101561156057600080fd5b81019080803590602001909291908035906020019064010000000081111561158757600080fd5b82018360208201111561159957600080fd5b803590602001918460018302840111640100000000831117156115bb57600080fd5b91908080601f016020809104026020016040519081016040528093929190818152602001838380828437600081840152601f19601f82011690508083019250505050505050919291929080359060200190929190803590602001909291908035906020019092919080359060200190929190803573ffffffffffffffffffffffffffffffffffffffff16906020019092919080359060200190929190505050612941565b604051808215151515815260200191505060405180910390f35b6004602052806000526040600020600091509050806000015490806001018054600181600116156101000203166002900480601f01602080910402602001604051908101604052809291908181526020018280546001816001161561010002031660029004801561172b5780601f106117005761010080835404028352916020019161172b565b820191906000526020600020905b81548152906001019060200180831161170e57829003601f168201915b5050505050908060020154908060030154908060040154908060050154908060060160009054906101000a900473ffffffffffffffffffffffffffffffffffffffff16908060070154905088565b606060008060008060008060046000898152602001908152602001600020600101600460008a815260200190815260200160002060020154600460008b815260200190815260200160002060030154600460008c815260200190815260200160002060040154600460008d815260200190815260200160002060050154600460008e8152602001908152602001600020600701548d868054600181600116156101000203166002900480601f0160208091040260200160405190810160405280929190818152602001828054600181600116156101000203166002900480156118a35780601f10611878576101008083540402835291602001916118a3565b820191906000526020600020905b81548152906001019060200180831161188657829003601f168201915b505050505096509650965096509650965096509650919395979092949650565b6000606060006004600085815260200190815260200160002060000154600460008681526020019081526020016000206001016004600087815260200190815260200160002060070154818054600181600116156101000203166002900480601f0160208091040260200160405190810160405280929190818152602001828054600181600116156101000203166002900480156119a25780601f10611977576101008083540402835291602001916119a2565b820191906000526020600020905b81548152906001019060200180831161198557829003601f168201915b505050505091509250925092509193909250565b6060600a60008381526020019081526020016000206000018054600181600116156101000203166002900480601f016020809104026020016040519081016040528092919081815260200182805460018160011615610100020316600290048015611a625780601f10611a3757610100808354040283529160200191611a62565b820191906000526020600020905b815481529060010190602001808311611a4557829003601f168201915b50505050509050919050565b6008602052806000526040600020600091509050806000015490806001015490806002018054600181600116156101000203166002900480601f016020809104026020016040519081016040528092919081815260200182805460018160011615610100020316600290048015611b265780601f10611afb57610100808354040283529160200191611b26565b820191906000526020600020905b815481529060010190602001808311611b0957829003601f168201915b5050505050905083565b60606000808373ffffffffffffffffffffffffffffffffffffffff1673ffffffffffffffffffffffffffffffffffffffff1681526020019081526020016000206000018054600181600116156101000203166002900480601f016020809104026020016040519081016040528092919081815260200182805460018160011615610100020316600290048015611c075780601f10611bdc57610100808354040283529160200191611c07565b820191906000526020600020905b815481529060010190602001808311611bea57829003601f168201915b50505050509050919050565b600081600a60008581526020019081526020016000206000019080519060200190611c3f929190612c3c565b5092915050565b6000826000808473ffffffffffffffffffffffffffffffffffffffff1673ffffffffffffffffffffffffffffffffffffffff1681526020019081526020016000206000019080519060200190611c9d929190612cbc565b506001905092915050565b60065481565b600086600460008a81526020019081526020016000206001019080519060200190611cda929190612cbc565b5085600460008a81526020019081526020016000206002018190555084600460008a81526020019081526020016000206003018190555083600460008a81526020019081526020016000206004018190555082600460008a81526020019081526020016000206005018190555081600460008a815260200190815260200160002060070181905550979650505050505050565b6060600760008373ffffffffffffffffffffffffffffffffffffffff1673ffffffffffffffffffffffffffffffffffffffff168152602001908152602001600020600001805480602002602001604051908101604052809291908181526020018280548015611dfb57602002820191906000526020600020905b815481526020019060010190808311611de7575b50505050509050919050565b6000602052806000526040600020600091509050806000018054600181600116156101000203166002900480601f016020809104026020016040519081016040528092919081815260200182805460018160011615610100020316600290048015611eb35780601f10611e8857610100808354040283529160200191611eb3565b820191906000526020600020905b815481529060010190602001808311611e9657829003601f168201915b5050505050908060010160009054906101000a900473ffffffffffffffffffffffffffffffffffffffff16905082565b606060008060008060008060056000898152602001908152602001600020600101600560008a815260200190815260200160002060020154600560008b815260200190815260200160002060030154600560008c815260200190815260200160002060040154600560008d815260200190815260200160002060050154600560008e815260200190815260200160002060060154600560008f815260200190815260200160002060070154868054600181600116156101000203166002900480601f0160208091040260200160405190810160405280929190818152602001828054600181600116156101000203166002900480156120235780601f10611ff857610100808354040283529160200191612023565b820191906000526020600020905b81548152906001019060200180831161200657829003601f168201915b505050505096509650965096509650965096509650919395979092949650565b6009602052806000526040600020600091509050806000015490806001018054600181600116156101000203166002900480601f0160208091040260200160405190810160405280929190818152602001828054600181600116156101000203166002900480156120f55780601f106120ca576101008083540402835291602001916120f5565b820191906000526020600020905b8154815290600101906020018083116120d857829003601f168201915b5050505050908060020154908060030154905084565b60606000806009600085815260200190815260200160002060010160096000868152602001908152602001600020600201546009600087815260200190815260200160002060030154828054600181600116156101000203166002900480601f0160208091040260200160405190810160405280929190818152602001828054600181600116156101000203166002900480156121e95780601f106121be576101008083540402835291602001916121e9565b820191906000526020600020905b8154815290600101906020018083116121cc57829003601f168201915b505050505092509250925092509193909250565b6000600380549050905090565b60006060600860008481526020019081526020016000206001015460086000858152602001908152602001600020600201808054600181600116156101000203166002900480601f0160208091040260200160405190810160405280929190818152602001828054600181600116156101000203166002900480156122d05780601f106122a5576101008083540402835291602001916122d0565b820191906000526020600020905b8154815290600101906020018083116122b357829003601f168201915b5050505050905091509150915091565b60006040518060600160405280858152602001848152602001838152506008600086815260200190815260200160002060008201518160000155602082015181600101556040820151816002019080519060200190612340929190612d3c565b509050509392505050565b60006040518061010001604052808b81526020018a815260200189815260200188815260200187815260200186815260200185815260200184815250600560008c81526020019081526020016000206000820151816000015560208201518160010190805190602001906123c0929190612d3c565b5060408201518160020155606082015181600301556080820151816004015560a0820151816005015560c0820151816006015560e08201518160070155905050600260008373ffffffffffffffffffffffffffffffffffffffff1673ffffffffffffffffffffffffffffffffffffffff16815260200190815260200160002060000160008154811061244e57fe5b906000526020600020016000905560008090505b6001600260008573ffffffffffffffffffffffffffffffffffffffff1673ffffffffffffffffffffffffffffffffffffffff168152602001908152602001600020600001805490500381101561257557600260008473ffffffffffffffffffffffffffffffffffffffff1673ffffffffffffffffffffffffffffffffffffffff168152602001908152602001600020600001600182018154811061250257fe5b9060005260206000200154600260008573ffffffffffffffffffffffffffffffffffffffff1673ffffffffffffffffffffffffffffffffffffffff168152602001908152602001600020600001828154811061255a57fe5b90600052602060002001819055508080600101915050612462565b50600190509998505050505050505050565b6000600260008373ffffffffffffffffffffffffffffffffffffffff1673ffffffffffffffffffffffffffffffffffffffff1681526020019081526020016000206000016000815481106125d757fe5b90600052602060002001549050919050565b6005602052806000526040600020600091509050806000015490806001018054600181600116156101000203166002900480601f01602080910402602001604051908101604052809291908181526020018280546001816001161561010002031660029004801561269b5780601f106126705761010080835404028352916020019161269b565b820191906000526020600020905b81548152906001019060200180831161267e57829003601f168201915b5050505050908060020154908060030154908060040154908060050154908060060154908060070154905088565b6000836009600087815260200190815260200160002060010190805190602001906126f5929190612cbc565b50826009600087815260200190815260200160002060020181905550816009600087815260200190815260200160002060030181905550949350505050565b600080600090505b82518110156127d157600260008573ffffffffffffffffffffffffffffffffffffffff1673ffffffffffffffffffffffffffffffffffffffff16815260200190815260200160002060000183828151811061279357fe5b60200260200101519080600181540180825580915050906001820390600052602060002001600090919290919091505550808060010191505061273c565b506001905092915050565b600381815481106127e957fe5b9060005260206000209060080201600091509050806000015490806001018054600181600116156101000203166002900480601f01602080910402602001604051908101604052809291908181526020018280546001816001161561010002031660029004801561289b5780601f106128705761010080835404028352916020019161289b565b820191906000526020600020905b81548152906001019060200180831161287e57829003601f168201915b5050505050908060020154908060030154908060040154908060050154908060060160009054906101000a900473ffffffffffffffffffffffffffffffffffffffff16908060070154905088565b6060600180548060200260200160405190810160405280929190818152602001828054801561293757602002820191906000526020600020905b815481526020019060010190808311612923575b5050505050905090565b600060066000815480929190600101919050555088600460008b81526020019081526020016000206000018190555087600460008b8152602001908152602001600020600101908051906020019061299a929190612cbc565b5086600460008b81526020019081526020016000206002018190555085600460008b81526020019081526020016000206003018190555084600460008b81526020019081526020016000206004018190555083600460008b81526020019081526020016000206005018190555082600460008b815260200190815260200160002060060160006101000a81548173ffffffffffffffffffffffffffffffffffffffff021916908373ffffffffffffffffffffffffffffffffffffffff16021790555081600460008b815260200190815260200160002060070181905550600760008473ffffffffffffffffffffffffffffffffffffffff1673ffffffffffffffffffffffffffffffffffffffff168152602001908152602001600020600001899080600181540180825580915050906001820390600052602060002001600090919290919091505550612aeb612dbc565b898160000181815250508881602001819052508781604001818152505085816080018181525050848160a0018181525050838160c0019073ffffffffffffffffffffffffffffffffffffffff16908173ffffffffffffffffffffffffffffffffffffffff1681525050828160e001818152505060038190806001815401808255809150509060018203906000526020600020906008020160009091929091909150600082015181600001556020820151816001019080519060200190612bb2929190612d3c565b5060408201518160020155606082015181600301556080820151816004015560a0820151816005015560c08201518160060160006101000a81548173ffffffffffffffffffffffffffffffffffffffff021916908373ffffffffffffffffffffffffffffffffffffffff16021790555060e082015181600701555050505098975050505050505050565b828054600181600116156101000203166002900490600052602060002090601f016020900481019282601f10612c7d57805160ff1916838001178555612cab565b82800160010185558215612cab579182015b82811115612caa578251825591602001919060010190612c8f565b5b509050612cb89190612e26565b5090565b828054600181600116156101000203166002900490600052602060002090601f016020900481019282601f10612cfd57805160ff1916838001178555612d2b565b82800160010185558215612d2b579182015b82811115612d2a578251825591602001919060010190612d0f565b5b509050612d389190612e26565b5090565b828054600181600116156101000203166002900490600052602060002090601f016020900481019282601f10612d7d57805160ff1916838001178555612dab565b82800160010185558215612dab579182015b82811115612daa578251825591602001919060010190612d8f565b5b509050612db89190612e26565b5090565b604051806101000160405280600081526020016060815260200160008019168152602001600080191681526020016000801916815260200160008019168152602001600073ffffffffffffffffffffffffffffffffffffffff168152602001600080191681525090565b612e4891905b80821115612e44576000816000905550600101612e2c565b5090565b9056fea265627a7a72315820439f19f13423ed7c1dc8711e162801dd84fd0370b19df9a6311c85426dc746d764736f6c63430005100032",
  "source": "//pragma solidity ^0.4.21;\n// SPDX-License-Identifier: GPL-3.0\npragma solidity >=0.4.16 <0.9.0;\n\nimport \"./ConvertLib.sol\";\n\n// This is just a simple example of a coin-like contract.\n// It is not standards compatible and cannot be expected to talk to other\n// coin/token contracts. If you want to create a standards-compliant\n// token, see: https://github.com/ConsenSys/Tokens. Cheers!\n\ncontract RiceCertificate {\n\t//sign up or login\n    struct reg {\n        string role;\n        address pass;\n    }\n    mapping(address => reg) public register;\n\n    function savesignup(string memory urole,address account) public payable returns(bool){\n        register[account].role = urole;\n        return true;\n    }\n        function logindata(address account) public view returns(string memory) {\n        return(register[account].role);\n    }\nbytes32[] appTable;\n\nstruct Tokens{\nuint256[] ERC721Tokens;\n}\n mapping(address => Tokens) TokenData;\n\nfunction saveTokenData(address acc,uint256[] memory tArray) public returns(bool){\n for(uint k = 0;k < tArray.length;k++){\n\t TokenData[acc].ERC721Tokens.push(tArray[k]);\n }\n return true;\n}\n\nfunction popToken(address acc) public view returns(uint256) {\n        return TokenData[acc].ERC721Tokens[0];\n    }\n\nstruct ricefield {\n\t\t\tuint256 farm_id;\n\t\t\tstring farm_owner;\n\t\t\tbytes32 farmeraddress;\n\t\t\tbytes32 place;\n\t\t\tbytes32 requirement;\n\t\t\tbytes32 standard;\n\t\t\taddress acc;\n\t\t\tbytes32 status;\n}\n\nricefield[] public myStructs;\n\nmapping(uint256=> ricefield) public RiceMap;\n// mapping(bytes32=> ricefield) public RiceMap1;\n\nstruct extraInfo{\n\t\t\tuint256 farm_id;\n\t\t\tstring crop;\n\t\t\tbytes32 extent;\n\t\t\tbytes32 previouscrop;\n\t\t\tbytes32 protect;\n\t\t\tbytes32 manure;\n\t\t\tbytes32 seed;\n\t\t\tbytes32 soiltype;\n}\nmapping(uint256=> extraInfo) public RiceInfo;\n\n\nuint public countApplication;\nfunction addApplication(uint256 _farmid,string memory _farmowner,bytes32 _farmeraddress,bytes32 _place,bytes32 _requirement,bytes32 _standard,address _account,bytes32 _status)public payable returns(bool){\n\tcountApplication++;\n\tRiceMap[_farmid].farm_id = _farmid;\n\tRiceMap[_farmid].farm_owner = _farmowner;\n\tRiceMap[_farmid].farmeraddress = _farmeraddress;\n\tRiceMap[_farmid].place = _place;\n\tRiceMap[_farmid].requirement = _requirement;\n\tRiceMap[_farmid].standard = _standard;\n\tRiceMap[_farmid].acc = _account;\n\tRiceMap[_farmid].status = _status;\n\t//appTable.push(forCheckInspection);\n\t/*RiceMap[_farmid] = ricefield(_farmid,_farmowner,_farmeraddress,_place,_requirement,_standard,_account,_status);*/\n accountTable[_account].accountArray.push(_farmid);\n   \tricefield memory m;\n\tm.farm_id = _farmid;\n\tm.farm_owner = _farmowner;\n\tm.farmeraddress = _farmeraddress;\n\t//m.place = _place;\n\tm.requirement = _requirement;\n\tm.standard = _standard;\n\tm.acc = _account;\n\tm.status = _status;\n\t/*m.crop = _crop;\n\tm.extent = _extent;\n\tm.previouscrop = _previouscrop;\n\tm.protect = _protect;\n\tm.manure = _manure;\n\tm.seed = _seed;\n\tm.soiltype = _soiltype;*/\n\tmyStructs.push(m);\n\t// RiceMap1[_farmid] = ricefield(_farmid,_farmowner,_farmeraddress,_place,_requirement,_standard,_account,_status);\n\t}\n\nfunction addApplication2(uint256 _farmid,string memory _crop,bytes32 _extent,bytes32 _previouscrop,bytes32 _protect,bytes32 _manure,bytes32 _seed,bytes32 _soiltype,address acco) public payable returns(bool){\n RiceInfo[_farmid] = extraInfo(_farmid,_crop,_extent,_previouscrop,_protect,_manure,_seed,_soiltype);\ndelete TokenData[acco].ERC721Tokens[0];\nfor(uint k = 0; k<TokenData[acco].ERC721Tokens.length-1;k++){\nTokenData[acco].ERC721Tokens[k] = TokenData[acco].ERC721Tokens[k+1];\n}\n//return (vdoMapping[sId].vdoArray.length-1);\nreturn true;\n\n}\n struct mapB {\n      uint[] accountArray;\n    }\n    mapping(address=>mapB) accountTable;\n\t//getfarmid for accounts\n    function getFarm(address acc) public view returns(uint[] memory) {\n        return accountTable[acc].accountArray;\n    }\n\t//for FARMER\nfunction getApplication(uint256 id) public view returns(uint256,string memory,bytes32){\n\treturn(RiceMap[id].farm_id,RiceMap[id].farm_owner,RiceMap[id].status);\n}\n\nstruct inspection{\n\tuint256 id;\n\tuint256 idate;\n\tstring iname;\n}\nmapping(uint256=> inspection) public Inspect;\n\n//for inspector applications table\nfunction getApplicationCount() public view returns(uint256){\n\treturn(myStructs.length);\n}\n\nfunction addInspectDetails(uint256 _id,uint256 idate,string memory iname)  payable public returns(bool){\n\tInspect[_id] = inspection(_id,idate,iname);\n}\n//for getting info based on farm_id\nfunction getInfo(uint256 farm_id) public view returns(string memory,bytes32, bytes32,bytes32,bytes32,bytes32,uint256){\n\treturn (RiceMap[farm_id].farm_owner,RiceMap[farm_id].farmeraddress,RiceMap[farm_id].place,RiceMap[farm_id].requirement,RiceMap[farm_id].standard,RiceMap[farm_id].status,farm_id);\n}\nfunction getextraInfo(uint256 farm_id) public view returns(string memory,bytes32, bytes32,bytes32,bytes32,bytes32,bytes32){\n\treturn (RiceInfo[farm_id].crop,RiceInfo[farm_id].extent,RiceInfo[farm_id].previouscrop,RiceInfo[farm_id].protect,RiceInfo[farm_id].manure,RiceInfo[farm_id].seed,RiceInfo[farm_id].soiltype);\n}\n//for getting inspection info based on farm_id\nfunction getInspectedInfo(uint256 farm_id) public view returns(uint256,string memory){\n\treturn (Inspect[farm_id].idate,Inspect[farm_id].iname);\n}\n\n//for inspector and certifier\nfunction updateFarm(uint256 farm_id,string memory _farmowner,bytes32 _farmeraddress, bytes32 _place,bytes32 _requirement,bytes32 _standard,bytes32 status) public payable returns(bool){\n\tRiceMap[farm_id].farm_owner = _farmowner;\n\tRiceMap[farm_id].farmeraddress = _farmeraddress;\n\tRiceMap[farm_id].place = _place;\n\tRiceMap[farm_id].requirement = _requirement;\n\tRiceMap[farm_id].standard = _standard;\n//\tRiceMap[farm_id].acc = _account;\n\tRiceMap[farm_id].status = status;\n}\n/*function updateExtraFarmDetails(bytes32 farm_id,string _crop,bytes32 _extent,bytes32 _previouscrop,bytes32 _protect,bytes32 _manure,bytes32 _seed,bytes32 _soiltype) public payable returns(bool){\n\n\tRiceInfo[farm_id].crop = _crop;\n\tRiceInfo[farm_id].extent = _extent;\n\tRiceInfo[farm_id].previouscrop = _previouscrop;\n\tRiceInfo[farm_id].protect = _protect;\n\tRiceInfo[farm_id].manure = _manure;\n\tRiceInfo[farm_id].seed = _seed;\n\tRiceInfo[farm_id].soiltype = _soiltype;\n}*/\nstruct certification{\n\tuint256 farm_id;\n\tstring cname;\n\tuint fromyr;\n\tuint toyr;\n}\n\nmapping(uint256=> certification) public Certified;\n\nfunction addCertifierDetails(uint256 farm_id,string memory _cname,uint _fromyr,uint _toyr) public payable returns(bool){\n\tCertified[farm_id].cname = _cname;\n\tCertified[farm_id].fromyr = _fromyr;\n\tCertified[farm_id].toyr = _toyr;\n}\n\nfunction getCertificationInfo(uint256 farm_id) public view returns(string memory,uint,uint){\n\treturn (Certified[farm_id].cname,Certified[farm_id].fromyr,Certified[farm_id].toyr);\n}\n\n\n\n/*function getApplication(address account) public view returns(bytes32,string,bytes32, bytes32,bytes32,bytes32){\n\treturn(RiceMap[account].farm_id,RiceMap[account].farm_owner,RiceMap[account].farmeraddress,RiceMap[account].place,RiceMap[account].requirement,RiceMap[account].standard);\n}\n*/// function getData(bytes32 farmid) public view returns(bytes32,string,bytes32,bytes32,bytes32,bytes32) {\n//         return(farmapping[farmid].farm_id, farmapping[farmid].farm_owner, farmapping[farmid].frmyr,farmapping[farmid].toyr,farmapping[farmid].farm_owner);\n//     }\n\n\n   /// @dev used to return the list of application for inspector and certifier\n    /// @return bytes32[] array\n    function retApp() public view returns(bytes32[] memory){\n          return (appTable);\n    }\n\n\nstruct shapeStruct{\n\tbytes coordinateHash;\n}\nmapping(uint256 => shapeStruct) shapeTable;\n\nfunction setShapeArray(uint256 farm_id,bytes memory hashArray) public payable returns(bool){\n\tshapeTable[farm_id].coordinateHash = hashArray;\n}\n\nfunction getShapeArray(uint256 farm_id) public view returns(bytes memory){\n\treturn (shapeTable[farm_id].coordinateHash);\n}\n/*function getApplication(address account) public view returns(bytes32,string,bytes32, bytes32,bytes32,bytes32){\n\treturn(RiceMap[account].farm_id,RiceMap[account].farm_owner,RiceMap[account].farmeraddress,RiceMap[account].place,RiceMap[account].requirement,RiceMap[account].standard);\n}\n*/// function getData(bytes32 farmid) public view returns(bytes32,string,bytes32,bytes32,bytes32,bytes32) {\n//         return(farmapping[farmid].farm_id, farmapping[farmid].farm_owner, farmapping[farmid].frmyr,farmapping[farmid].toyr,farmapping[farmid].farm_owner);\n//     }\n\n}\n\n",
  "sourcePath": "/home/kottackal/Desktop/IONIC Tutorial/organic-certification/contracts/RiceCertificate.sol",
  "compiler": {
    "name": "solc",
    "version": "0.5.16+commit.9c3226ce.Emscripten.clang"
  },
  "schemaVersion": "3.4.2",
  "updatedAt": "2021-09-10T02:32:51.361Z",
  "networkType": "ethereum",
  "devdoc": {
    "methods": {
      "retApp()": {
        "details": "used to return the list of application for inspector and certifier",
        "return": "bytes32[] array"
      }
    }
  },
  "userdoc": {
    "methods": {}
  }
}